{
  "contractName": "DataTypes",
  "abi": [
    {
      "inputs": [],
      "name": "secondsPerYear",
      "outputs": [
        {
          "internalType": "uint256",
          "name": "",
          "type": "uint256"
        }
      ],
      "stateMutability": "view",
      "type": "function"
    }
  ],
  "bytecode": "0x6092610024600b82828239805160001a607314601757fe5b30600052607381538281f3fe730000000000000000000000000000000000000000301460806040526004361060335760003560e01c8063252e40b1146038575b600080fd5b603e6054565b6040518082815260200191505060405180910390f35b6301e133808156fea2646970667358221220e057819dbcf3aa804304bb29d086c3e18f04c4d097edcedadb1ea7a76550198964736f6c63430007060033",
  "immutableReferences": {},
  "source": "pragma solidity ^0.7.5;\n\n/**\n* @author Rastislav Budinsky\n* @dev library declaring all used enums at the moment in the DataTypes library\n*/\nlibrary DataTypes {\n    \n    enum TransactionType {NONE, DEPOSIT, WITHDRAW, BORROW, REPAY, LIQUIDATION, STAKE, UNSTAKE, STAKE_REWARD, SLASH}\n\n    enum InterestMode {NONE, FIXED, VARIABLE}\n\n    enum BalanceType {NONE, DEFAULT, LENDING}\n\n    enum LiquidationType {NONE, BORROWABLE, UNBORROWABLE, LIQUIDATED}\n\n    uint public constant secondsPerYear = 31536000;\n}\n\n/**\n* @author Rastislav Budinsky\n* @dev utility library for calculating liquidations\n*/\nlibrary Liquidations {\n\n    /**\n    * @notice checks, if the liquidation treshold is exceeded\n    * @param asset the address of the borrowed asset\n    * @param amount1 the amount of the borrowed asset\n    * @param collateral the address of the underlying asset\n    * @param amount2 the amount of collateral\n    * @param liquidation the treshold before liquidation of this pair\n    * @param borrow the treshold before the borrow is denied\n    * @param decimals the decimal precision of liquidation and borrow tresholds\n    * @return LiquidationType   BORROWABLE: if the user is allowed to borrow\n    *                           UNBORROWABLE: the user is not allowed to borrow but not yet liquidated\n    *                           LIQUIDATED: the user should get liquidated\n    */\n    function checkLiquidated(\n        address asset,\n        uint amount1,\n        address collateral,\n        uint amount2,\n        uint liquidation,\n        uint borrow,\n        uint decimals\n    ) public view returns(DataTypes.LiquidationType) {\n\n        return DataTypes.LiquidationType.BORROWABLE;\n    }\n\n    /**\n    * @notice calculates the liquidation price\n    * @param asset the address of the borrowed asset\n    * @param amount1 the amount of the borrowed asset\n    * @param collateral the address of the underlying asset\n    * @param amount2 the amount of the underlying asset\n    * @param liquidation the treshold before liquidation of this pair\n    * @param decimals the decimal precision of liquidation\n    * @return returns the price at which the underlying asset if liquidated\n    */\n    function getLiquidationPrice(\n        address asset,\n        uint amount1,\n        address collateral,\n        uint amount2,\n        uint liquidation,\n        uint decimals\n    ) public view returns(uint) {\n\n        return 0;\n    }\n}\n\n/**\n* @author Rastislav Budinsky\n* @dev utility library for selecting interests*/\nlibrary Interests {\n\n    /**\n    * @dev selects the proper interest rate\n    * @param balanceType the type of balance\n    * @param interestMode the interest mode selected\n    * @param variableDeposit the variable deposit interest rate\n    * @param fixedDeposit the fixed deposit interest rate\n    * @param variableBorrow the variable borrow interest rate\n    * @param fixedBorrow the fixed borrow interest rate\n    * @return returns the interest rate accordingly\n    */\n    function selectInterestRate(\n        DataTypes.BalanceType balanceType,\n        DataTypes.InterestMode interestMode,\n        uint variableDeposit,\n        uint fixedDeposit,\n        uint variableBorrow,\n        uint fixedBorrow \n    ) internal view returns(uint) {\n        if (balanceType == DataTypes.BalanceType.LENDING)\n        {\n            return interestMode == DataTypes.InterestMode.FIXED ? fixedBorrow : variableBorrow;\n        }\n\n        return interestMode == DataTypes.InterestMode.FIXED ? fixedDeposit : variableDeposit;\n    }\n\n    // struct BalanceSnap {\n    //     uint _timestamp;        // since last interaction\n    //     address _token;         // smart contract address of the token\n    //     uint _borrowAmount;     // initial borrow\n    //     uint _accruedInterest;  // total accrued interest\n    //     uint _interest;         // interest, in variable mode should be recalculated\n    //     InterestMode _interestMode;\n    // }\n\n    // /**\n    // * @dev Calculates the increse in interest since last provided snap\n    // * @param _snap The snap to calculate interest since\n    // * @return The previous total debt, the current total dept, accrued interest since last interact\n    // */\n    // function balanceIncrease(BalanceSnap storage _snap) \n    //     internal\n    //     view\n    //     returns(\n    //         uint,\n    //         uint,\n    //         uint\n    //     )\n    // {\n    //     uint interest = _snap._interestMode == InterestMode.VARIABLE ? calcVariableInterest() : _snap._interest;\n    //     uint accruedInterest = ( block.timestamp - _snap._timestamp ) * interest;\n\n    //     return(\n    //         _snap._borrowAmount + _snap._accruedInterest,\n    //         _snap._borrowAmount + _snap._accruedInterest + accruedInterest,\n    //         accruedInterest\n    //     );\n    // }\n\n    // /**\n    // * @dev Calculates current variable APY for borrow\n    // */\n    // function calcVariableInterest()\n    //     internal\n    //     view\n    //     returns(uint)\n    // {\n    //     // TODO\n    //     return 0;\n    // }\n}",
  "sourcePath": "/home/huginn/Desktop/Projects/FIT-prestiz/Token/contracts/libraries/Utils.sol",
  "compiler": {
    "name": "solc",
    "version": "0.7.6+commit.7338295f.Emscripten.clang"
  },
  "schemaVersion": "3.4.1",
  "updatedAt": "2021-07-05T13:26:35.749Z",
  "devdoc": {
    "author": "Rastislav Budinsky",
    "details": "library declaring all used enums at the moment in the DataTypes library",
    "kind": "dev",
    "methods": {},
    "version": 1
  },
  "userdoc": {
    "kind": "user",
    "methods": {},
    "version": 1
  }
}