{
  "contractName": "DataTypes",
  "abi": [
    {
      "inputs": [],
      "name": "secondsPerYear",
      "outputs": [
        {
          "internalType": "uint256",
          "name": "",
          "type": "uint256"
        }
      ],
      "stateMutability": "view",
      "type": "function"
    }
  ],
  "bytecode": "0x6092610024600b82828239805160001a607314601757fe5b30600052607381538281f3fe730000000000000000000000000000000000000000301460806040526004361060335760003560e01c8063252e40b1146038575b600080fd5b603e6054565b6040518082815260200191505060405180910390f35b6301e133808156fea264697066735822122080c75005ab349a168f5c923dddfa2237cbb2f9f8e029abb2b0311959ffae704964736f6c63430007060033",
  "immutableReferences": {},
  "source": "// SPDX-License-Identifier: 0BSD\n\npragma solidity ^0.7.5;\n\n/**\n* @author Rastislav Budinsky\n* @dev library declaring all used enums at the moment in the DataTypes library\n*/\nlibrary DataTypes {\n    \n    enum TransactionType {NONE, DEPOSIT, WITHDRAW, BORROW, REPAY, LIQUIDATION, STAKE, UNSTAKE, STAKE_REWARD_FITCOIN, STAKE_REWARD_OTHER, STAKE_REDEEM, SLASH}\n\n    enum InterestMode {NONE, FIXED, VARIABLE}\n\n    enum BalanceType {NONE, DEFAULT, LENDING}\n\n    enum LiquidationType {NONE, BORROWABLE, UNBORROWABLE, LIQUIDATED}\n\n    uint public constant secondsPerYear = 31536000;\n}\n\n/**\n* @author Rastislav Budinsky\n* @dev utility library for calculating liquidations\n*/\nlibrary Liquidations {\n\n    /**\n    * @notice checks, if the liquidation treshold is exceeded\n    * @param asset the address of the borrowed asset\n    * @param amount1 the amount of the borrowed asset\n    * @param collateral the address of the underlying asset\n    * @param amount2 the amount of collateral\n    * @param liquidation the treshold before liquidation of this pair\n    * @param borrow the treshold before the borrow is denied\n    * @param decimals the decimal precision of liquidation and borrow tresholds\n    * @return LiquidationType   BORROWABLE: if the user is allowed to borrow\n    *                           UNBORROWABLE: the user is not allowed to borrow but not yet liquidated\n    *                           LIQUIDATED: the user should get liquidated\n    */\n    function checkLiquidated(\n        address asset,\n        uint amount1,\n        address collateral,\n        uint amount2,\n        uint liquidation,\n        uint borrow,\n        uint decimals\n    ) public pure returns(DataTypes.LiquidationType) {\n\n        return DataTypes.LiquidationType.BORROWABLE;\n    }\n\n    /**\n    * @notice calculates the liquidation price\n    * @param asset the address of the borrowed asset\n    * @param amount1 the amount of the borrowed asset\n    * @param collateral the address of the underlying asset\n    * @param amount2 the amount of the underlying asset\n    * @param liquidation the treshold before liquidation of this pair\n    * @param decimals the decimal precision of liquidation\n    * @return returns the price at which the underlying asset if liquidated\n    */\n    function getLiquidationPrice(\n        address asset,\n        uint amount1,\n        address collateral,\n        uint amount2,\n        uint liquidation,\n        uint decimals\n    ) public pure returns(uint) {\n\n        return 0;\n    }\n}\n\n/**\n* @author Rastislav Budinsky\n* @dev utility library for selecting interests*/\nlibrary Interests {\n\n    /**\n    * @dev selects the proper interest rate\n    * @param balanceType the type of balance\n    * @param interestMode the interest mode selected\n    * @param variableDeposit the variable deposit interest rate\n    * @param fixedDeposit the fixed deposit interest rate\n    * @param variableBorrow the variable borrow interest rate\n    * @param fixedBorrow the fixed borrow interest rate\n    * @return returns the interest rate accordingly\n    */\n    function selectInterestRate(\n        DataTypes.BalanceType balanceType,\n        DataTypes.InterestMode interestMode,\n        uint variableDeposit,\n        uint fixedDeposit,\n        uint variableBorrow,\n        uint fixedBorrow \n    ) internal pure returns(uint) {\n        if (balanceType == DataTypes.BalanceType.LENDING)\n        {\n            return interestMode == DataTypes.InterestMode.FIXED ? fixedBorrow : variableBorrow;\n        }\n\n        return interestMode == DataTypes.InterestMode.FIXED ? fixedDeposit : variableDeposit;\n    }\n\n}",
  "sourcePath": "/home/huginn/Desktop/Projects/FIT-prestiz/Token/contracts/libraries/Utils.sol",
  "compiler": {
    "name": "solc",
    "version": "0.7.6+commit.7338295f.Emscripten.clang"
  },
  "schemaVersion": "3.4.1",
  "updatedAt": "2021-08-09T12:42:30.915Z",
  "devdoc": {
    "author": "Rastislav Budinsky",
    "details": "library declaring all used enums at the moment in the DataTypes library",
    "kind": "dev",
    "methods": {},
    "version": 1
  },
  "userdoc": {
    "kind": "user",
    "methods": {},
    "version": 1
  }
}