{
  "contractName": "LendingPool",
  "abi": [
    {
      "anonymous": false,
      "inputs": [
        {
          "indexed": true,
          "internalType": "address",
          "name": "collateral",
          "type": "address"
        },
        {
          "indexed": true,
          "internalType": "address",
          "name": "asset",
          "type": "address"
        },
        {
          "indexed": false,
          "internalType": "address",
          "name": "user",
          "type": "address"
        },
        {
          "indexed": false,
          "internalType": "uint256",
          "name": "amount",
          "type": "uint256"
        },
        {
          "indexed": false,
          "internalType": "enum DataTypes.InterestMode",
          "name": "interestMode",
          "type": "uint8"
        },
        {
          "indexed": false,
          "internalType": "uint256",
          "name": "interestRate",
          "type": "uint256"
        }
      ],
      "name": "Borrow",
      "type": "event"
    },
    {
      "anonymous": false,
      "inputs": [
        {
          "indexed": true,
          "internalType": "address",
          "name": "asset",
          "type": "address"
        },
        {
          "indexed": false,
          "internalType": "address",
          "name": "user",
          "type": "address"
        },
        {
          "indexed": false,
          "internalType": "uint256",
          "name": "amount",
          "type": "uint256"
        }
      ],
      "name": "Deposit",
      "type": "event"
    },
    {
      "anonymous": false,
      "inputs": [
        {
          "indexed": true,
          "internalType": "address",
          "name": "collateral",
          "type": "address"
        },
        {
          "indexed": true,
          "internalType": "address",
          "name": "asset",
          "type": "address"
        },
        {
          "indexed": false,
          "internalType": "address",
          "name": "user",
          "type": "address"
        },
        {
          "indexed": false,
          "internalType": "address",
          "name": "liquidator",
          "type": "address"
        },
        {
          "indexed": false,
          "internalType": "uint256",
          "name": "amount",
          "type": "uint256"
        }
      ],
      "name": "LiquidationCall",
      "type": "event"
    },
    {
      "anonymous": false,
      "inputs": [
        {
          "indexed": true,
          "internalType": "address",
          "name": "collateral",
          "type": "address"
        },
        {
          "indexed": true,
          "internalType": "address",
          "name": "asset",
          "type": "address"
        },
        {
          "indexed": false,
          "internalType": "address",
          "name": "user",
          "type": "address"
        },
        {
          "indexed": false,
          "internalType": "uint256",
          "name": "amount",
          "type": "uint256"
        }
      ],
      "name": "Repay",
      "type": "event"
    },
    {
      "anonymous": false,
      "inputs": [
        {
          "indexed": true,
          "internalType": "address",
          "name": "asset",
          "type": "address"
        },
        {
          "indexed": false,
          "internalType": "address",
          "name": "user",
          "type": "address"
        },
        {
          "indexed": false,
          "internalType": "uint256",
          "name": "amount",
          "type": "uint256"
        }
      ],
      "name": "Withdraw",
      "type": "event"
    },
    {
      "inputs": [
        {
          "internalType": "address",
          "name": "",
          "type": "address"
        }
      ],
      "name": "reserves",
      "outputs": [
        {
          "internalType": "uint256",
          "name": "total",
          "type": "uint256"
        },
        {
          "internalType": "uint256",
          "name": "borrow",
          "type": "uint256"
        },
        {
          "internalType": "uint256",
          "name": "variableBorrowInterest",
          "type": "uint256"
        },
        {
          "internalType": "uint256",
          "name": "fixedBorrowInterest",
          "type": "uint256"
        },
        {
          "internalType": "uint256",
          "name": "variableDepositInterest",
          "type": "uint256"
        },
        {
          "internalType": "uint256",
          "name": "fixedDepositInterest",
          "type": "uint256"
        },
        {
          "internalType": "uint256",
          "name": "depositBorrowRate",
          "type": "uint256"
        },
        {
          "internalType": "uint256",
          "name": "healthRate",
          "type": "uint256"
        },
        {
          "internalType": "uint256",
          "name": "decimals",
          "type": "uint256"
        },
        {
          "internalType": "bool",
          "name": "isDeposit",
          "type": "bool"
        },
        {
          "internalType": "bool",
          "name": "isBorrow",
          "type": "bool"
        },
        {
          "internalType": "bool",
          "name": "isAvailable",
          "type": "bool"
        },
        {
          "internalType": "uint256",
          "name": "lastUpdate",
          "type": "uint256"
        }
      ],
      "stateMutability": "view",
      "type": "function"
    },
    {
      "inputs": [
        {
          "internalType": "address",
          "name": "asset",
          "type": "address"
        },
        {
          "internalType": "uint256",
          "name": "amount",
          "type": "uint256"
        }
      ],
      "name": "deposit",
      "outputs": [],
      "stateMutability": "nonpayable",
      "type": "function"
    },
    {
      "inputs": [
        {
          "internalType": "address",
          "name": "asset",
          "type": "address"
        },
        {
          "internalType": "uint256",
          "name": "amount",
          "type": "uint256"
        }
      ],
      "name": "withdraw",
      "outputs": [
        {
          "internalType": "uint256",
          "name": "",
          "type": "uint256"
        }
      ],
      "stateMutability": "nonpayable",
      "type": "function"
    },
    {
      "inputs": [
        {
          "internalType": "address",
          "name": "collateral",
          "type": "address"
        },
        {
          "internalType": "address",
          "name": "asset",
          "type": "address"
        },
        {
          "internalType": "uint256",
          "name": "amount",
          "type": "uint256"
        },
        {
          "internalType": "enum DataTypes.InterestMode",
          "name": "interestMode",
          "type": "uint8"
        }
      ],
      "name": "borrow",
      "outputs": [
        {
          "internalType": "bool",
          "name": "",
          "type": "bool"
        }
      ],
      "stateMutability": "nonpayable",
      "type": "function"
    },
    {
      "inputs": [
        {
          "internalType": "address",
          "name": "collateral",
          "type": "address"
        },
        {
          "internalType": "address",
          "name": "asset",
          "type": "address"
        },
        {
          "internalType": "uint256",
          "name": "amount",
          "type": "uint256"
        }
      ],
      "name": "repay",
      "outputs": [
        {
          "internalType": "uint256",
          "name": "",
          "type": "uint256"
        }
      ],
      "stateMutability": "nonpayable",
      "type": "function"
    },
    {
      "inputs": [
        {
          "internalType": "address",
          "name": "collateral",
          "type": "address"
        },
        {
          "internalType": "address",
          "name": "asset",
          "type": "address"
        },
        {
          "internalType": "address",
          "name": "user",
          "type": "address"
        }
      ],
      "name": "liquidationCall",
      "outputs": [],
      "stateMutability": "nonpayable",
      "type": "function"
    },
    {
      "inputs": [
        {
          "internalType": "address",
          "name": "token",
          "type": "address"
        },
        {
          "internalType": "uint256",
          "name": "total",
          "type": "uint256"
        },
        {
          "internalType": "uint256",
          "name": "fixedBorrowInterest",
          "type": "uint256"
        },
        {
          "internalType": "uint256",
          "name": "fixedDepositInterest",
          "type": "uint256"
        },
        {
          "internalType": "uint256",
          "name": "depositBorrowRate",
          "type": "uint256"
        },
        {
          "internalType": "uint256",
          "name": "healthRate",
          "type": "uint256"
        },
        {
          "internalType": "uint256",
          "name": "decimals",
          "type": "uint256"
        }
      ],
      "name": "InitializeReserve",
      "outputs": [],
      "stateMutability": "nonpayable",
      "type": "function"
    },
    {
      "inputs": [
        {
          "internalType": "address",
          "name": "token",
          "type": "address"
        },
        {
          "internalType": "bool",
          "name": "isDeposit",
          "type": "bool"
        },
        {
          "internalType": "bool",
          "name": "isBorrow",
          "type": "bool"
        },
        {
          "internalType": "bool",
          "name": "isAvailable",
          "type": "bool"
        }
      ],
      "name": "InitializeAvailability",
      "outputs": [],
      "stateMutability": "nonpayable",
      "type": "function"
    },
    {
      "inputs": [
        {
          "internalType": "address",
          "name": "user",
          "type": "address"
        },
        {
          "internalType": "address",
          "name": "token",
          "type": "address"
        }
      ],
      "name": "getUserBalance",
      "outputs": [
        {
          "internalType": "uint256",
          "name": "",
          "type": "uint256"
        },
        {
          "internalType": "uint256",
          "name": "",
          "type": "uint256"
        },
        {
          "internalType": "enum DataTypes.InterestMode",
          "name": "",
          "type": "uint8"
        },
        {
          "internalType": "uint256",
          "name": "",
          "type": "uint256"
        },
        {
          "internalType": "address",
          "name": "",
          "type": "address"
        }
      ],
      "stateMutability": "view",
      "type": "function"
    },
    {
      "inputs": [
        {
          "internalType": "address",
          "name": "user",
          "type": "address"
        },
        {
          "internalType": "address",
          "name": "token",
          "type": "address"
        }
      ],
      "name": "getUserBorrow",
      "outputs": [
        {
          "internalType": "uint256",
          "name": "",
          "type": "uint256"
        },
        {
          "internalType": "uint256",
          "name": "",
          "type": "uint256"
        },
        {
          "internalType": "enum DataTypes.InterestMode",
          "name": "",
          "type": "uint8"
        },
        {
          "internalType": "uint256",
          "name": "",
          "type": "uint256"
        },
        {
          "internalType": "address",
          "name": "",
          "type": "address"
        }
      ],
      "stateMutability": "view",
      "type": "function"
    },
    {
      "inputs": [
        {
          "internalType": "address",
          "name": "token",
          "type": "address"
        }
      ],
      "name": "getReserveBalance",
      "outputs": [
        {
          "internalType": "uint256",
          "name": "",
          "type": "uint256"
        },
        {
          "internalType": "uint256",
          "name": "",
          "type": "uint256"
        }
      ],
      "stateMutability": "view",
      "type": "function"
    },
    {
      "inputs": [
        {
          "internalType": "address",
          "name": "token",
          "type": "address"
        }
      ],
      "name": "getReserveInterests",
      "outputs": [
        {
          "internalType": "uint256",
          "name": "",
          "type": "uint256"
        },
        {
          "internalType": "uint256",
          "name": "",
          "type": "uint256"
        },
        {
          "internalType": "uint256",
          "name": "",
          "type": "uint256"
        },
        {
          "internalType": "uint256",
          "name": "",
          "type": "uint256"
        }
      ],
      "stateMutability": "view",
      "type": "function"
    }
  ],
  "bytecode": "0x608060405234801561001057600080fd5b506133c9806100206000396000f3fe608060405234801561001057600080fd5b50600436106100b45760003560e01c8063c940c76311610071578063c940c7631461039b578063cdb596441461041f578063d66bd524146104d4578063e2204dd914610586578063f3fef3a3146105ee578063f62b8ff914610650576100b4565b806315226b54146100b95780631da649cf1461011857806347e7ef241461019a578063523bd755146101e85780636805d6ad14610255578063a2fe795b1461030a575b600080fd5b6100fb600480360360208110156100cf57600080fd5b81019080803573ffffffffffffffffffffffffffffffffffffffff1690602001909291905050506106d0565b604051808381526020018281526020019250505060405180910390f35b6101846004803603606081101561012e57600080fd5b81019080803573ffffffffffffffffffffffffffffffffffffffff169060200190929190803573ffffffffffffffffffffffffffffffffffffffff16906020019092919080359060200190929190505050610762565b6040518082815260200191505060405180910390f35b6101e6600480360360408110156101b057600080fd5b81019080803573ffffffffffffffffffffffffffffffffffffffff1690602001909291908035906020019092919050505061094e565b005b61022a600480360360208110156101fe57600080fd5b81019080803573ffffffffffffffffffffffffffffffffffffffff169060200190929190505050610b17565b6040518085815260200184815260200183815260200182815260200194505050505060405180910390f35b6102b76004803603604081101561026b57600080fd5b81019080803573ffffffffffffffffffffffffffffffffffffffff169060200190929190803573ffffffffffffffffffffffffffffffffffffffff169060200190929190505050610b73565b604051808681526020018581526020018460028111156102d357fe5b81526020018381526020018273ffffffffffffffffffffffffffffffffffffffff1681526020019550505050505060405180910390f35b6103836004803603608081101561032057600080fd5b81019080803573ffffffffffffffffffffffffffffffffffffffff169060200190929190803573ffffffffffffffffffffffffffffffffffffffff16906020019092919080359060200190929190803560ff169060200190929190505050610c22565b60405180821515815260200191505060405180910390f35b61041d600480360360608110156103b157600080fd5b81019080803573ffffffffffffffffffffffffffffffffffffffff169060200190929190803573ffffffffffffffffffffffffffffffffffffffff169060200190929190803573ffffffffffffffffffffffffffffffffffffffff1690602001909291905050506110b7565b005b6104816004803603604081101561043557600080fd5b81019080803573ffffffffffffffffffffffffffffffffffffffff169060200190929190803573ffffffffffffffffffffffffffffffffffffffff16906020019092919050505061118e565b6040518086815260200185815260200184600281111561049d57fe5b81526020018381526020018273ffffffffffffffffffffffffffffffffffffffff1681526020019550505050505060405180910390f35b610516600480360360208110156104ea57600080fd5b81019080803573ffffffffffffffffffffffffffffffffffffffff16906020019092919050505061123d565b604051808e81526020018d81526020018c81526020018b81526020018a81526020018981526020018881526020018781526020018681526020018515158152602001841515815260200183151581526020018281526020019d505050505050505050505050505060405180910390f35b6105ec6004803603608081101561059c57600080fd5b81019080803573ffffffffffffffffffffffffffffffffffffffff1690602001909291908035151590602001909291908035151590602001909291908035151590602001909291905050506112ca565b005b61063a6004803603604081101561060457600080fd5b81019080803573ffffffffffffffffffffffffffffffffffffffff16906020019092919080359060200190929190505050611325565b6040518082815260200191505060405180910390f35b6106ce600480360360e081101561066657600080fd5b81019080803573ffffffffffffffffffffffffffffffffffffffff169060200190929190803590602001909291908035906020019092919080359060200190929190803590602001909291908035906020019092919080359060200190929190505050611586565b005b600080600160008473ffffffffffffffffffffffffffffffffffffffff1673ffffffffffffffffffffffffffffffffffffffff16815260200190815260200160002060000154600160008573ffffffffffffffffffffffffffffffffffffffff1673ffffffffffffffffffffffffffffffffffffffff1681526020019081526020016000206001015491509150915091565b60008082116107d9576040517f08c379a00000000000000000000000000000000000000000000000000000000081526004018080602001828103825260178152602001807f496e76616c696420616d6f756e7420746f20726570617900000000000000000081525060200191505060405180910390fd5b600061086d8484600160008873ffffffffffffffffffffffffffffffffffffffff1673ffffffffffffffffffffffffffffffffffffffff1681526020019081526020016000206000803373ffffffffffffffffffffffffffffffffffffffff1673ffffffffffffffffffffffffffffffffffffffff1681526020019081526020016000206115ea909392919063ffffffff16565b90506108c081600160008773ffffffffffffffffffffffffffffffffffffffff1673ffffffffffffffffffffffffffffffffffffffff16815260200190815260200160002061174690919063ffffffff16565b8373ffffffffffffffffffffffffffffffffffffffff168573ffffffffffffffffffffffffffffffffffffffff167f4cdde6e09bb755c9a5589ebaec640bbfedff1362d4b255ebf8339782b9942faa3386604051808373ffffffffffffffffffffffffffffffffffffffff1681526020018281526020019250505060405180910390a3809150509392505050565b600081116109c4576040517f08c379a000000000000000000000000000000000000000000000000000000000815260040180806020018281038252601e8152602001807f496e76616c696420616d6f756e7420746f206265206465706f7369746564000081525060200191505060405180910390fd5b610a1581600160008573ffffffffffffffffffffffffffffffffffffffff1673ffffffffffffffffffffffffffffffffffffffff1681526020019081526020016000206117fa90919063ffffffff16565b610aa78282600160008673ffffffffffffffffffffffffffffffffffffffff1673ffffffffffffffffffffffffffffffffffffffff1681526020019081526020016000206000803373ffffffffffffffffffffffffffffffffffffffff1673ffffffffffffffffffffffffffffffffffffffff1681526020019081526020016000206118f5909392919063ffffffff16565b8173ffffffffffffffffffffffffffffffffffffffff167f5548c837ab068cf56a2c2479df0882a4922fd203edb7517321831d95078c5f623383604051808373ffffffffffffffffffffffffffffffffffffffff1681526020018281526020019250505060405180910390a25050565b600080600080610b64600160008773ffffffffffffffffffffffffffffffffffffffff1673ffffffffffffffffffffffffffffffffffffffff168152602001908152602001600020611a05565b93509350935093509193509193565b6000806000806000610c0e86600160008973ffffffffffffffffffffffffffffffffffffffff1673ffffffffffffffffffffffffffffffffffffffff16815260200190815260200160002060016000808c73ffffffffffffffffffffffffffffffffffffffff1673ffffffffffffffffffffffffffffffffffffffff168152602001908152602001600020611a60909392919063ffffffff16565b945094509450945094509295509295909350565b6000808311610c99576040517f08c379a00000000000000000000000000000000000000000000000000000000081526004018080602001828103825260188152602001807f496e76616c696420616d6f756e7420746f20626f72726f77000000000000000081525060200191505060405180910390fd5b60016003811115610ca657fe5b73__Liquidations__________________________63817a26238686610d55896002600160008d73ffffffffffffffffffffffffffffffffffffffff1673ffffffffffffffffffffffffffffffffffffffff1681526020019081526020016000206000803373ffffffffffffffffffffffffffffffffffffffff1673ffffffffffffffffffffffffffffffffffffffff168152602001908152602001600020611b51909392919063ffffffff16565b0189610daa8b60016000803373ffffffffffffffffffffffffffffffffffffffff1673ffffffffffffffffffffffffffffffffffffffff168152602001908152602001600020611c519092919063ffffffff16565b60008060006040518863ffffffff1660e01b8152600401808873ffffffffffffffffffffffffffffffffffffffff1681526020018781526020018673ffffffffffffffffffffffffffffffffffffffff16815260200185815260200184815260200183815260200182815260200197505050505050505060206040518083038186803b158015610e3957600080fd5b505af4158015610e4d573d6000803e3d6000fd5b505050506040513d6020811015610e6357600080fd5b81019080805190602001909291905050506003811115610e7f57fe5b14610e8d57600090506110af565b610ede83600160008773ffffffffffffffffffffffffffffffffffffffff1673ffffffffffffffffffffffffffffffffffffffff168152602001908152602001600020611d3c90919063ffffffff16565b610f72848487600160008973ffffffffffffffffffffffffffffffffffffffff1673ffffffffffffffffffffffffffffffffffffffff1681526020019081526020016000206000803373ffffffffffffffffffffffffffffffffffffffff1673ffffffffffffffffffffffffffffffffffffffff168152602001908152602001600020611ea590949392919063ffffffff16565b600061100985600285600160008a73ffffffffffffffffffffffffffffffffffffffff1673ffffffffffffffffffffffffffffffffffffffff1681526020019081526020016000206000803373ffffffffffffffffffffffffffffffffffffffff1673ffffffffffffffffffffffffffffffffffffffff168152602001908152602001600020611fae90949392919063ffffffff16565b90508473ffffffffffffffffffffffffffffffffffffffff168673ffffffffffffffffffffffffffffffffffffffff167f1f02a74a10d313cdb5a5ac630faf9ed5427ea52f893195d1f6affdeb391f061933878786604051808573ffffffffffffffffffffffffffffffffffffffff16815260200184815260200183600281111561109057fe5b815260200182815260200194505050505060405180910390a360019150505b949350505050565b6111898284600160008673ffffffffffffffffffffffffffffffffffffffff1673ffffffffffffffffffffffffffffffffffffffff168152602001908152602001600020600160008873ffffffffffffffffffffffffffffffffffffffff1673ffffffffffffffffffffffffffffffffffffffff1681526020019081526020016000206000808773ffffffffffffffffffffffffffffffffffffffff1673ffffffffffffffffffffffffffffffffffffffff1681526020019081526020016000206120b790949392919063ffffffff16565b505050565b600080600080600061122986600160008973ffffffffffffffffffffffffffffffffffffffff1673ffffffffffffffffffffffffffffffffffffffff16815260200190815260200160002060026000808c73ffffffffffffffffffffffffffffffffffffffff1673ffffffffffffffffffffffffffffffffffffffff168152602001908152602001600020611a60909392919063ffffffff16565b945094509450945094509295509295909350565b60016020528060005260406000206000915090508060000154908060010154908060020154908060030154908060040154908060050154908060060154908060070154908060080154908060090160009054906101000a900460ff16908060090160019054906101000a900460ff16908060090160029054906101000a900460ff169080600a015490508d565b61131f838383600160008973ffffffffffffffffffffffffffffffffffffffff1673ffffffffffffffffffffffffffffffffffffffff16815260200190815260200160002061221e909392919063ffffffff16565b50505050565b600080821161139c576040517f08c379a000000000000000000000000000000000000000000000000000000000815260040180806020018281038252601e8152602001807f496e76616c696420616d6f756e7420746f2062652077697468647261776e000081525060200191505060405180910390fd5b6113ed82600160008673ffffffffffffffffffffffffffffffffffffffff1673ffffffffffffffffffffffffffffffffffffffff16815260200190815260200160002061227890919063ffffffff16565b6115118383600160008773ffffffffffffffffffffffffffffffffffffffff1673ffffffffffffffffffffffffffffffffffffffff168152602001908152602001600020600160006114888960016000803373ffffffffffffffffffffffffffffffffffffffff1673ffffffffffffffffffffffffffffffffffffffff1681526020019081526020016000206123779092919063ffffffff16565b73ffffffffffffffffffffffffffffffffffffffff1673ffffffffffffffffffffffffffffffffffffffff1681526020019081526020016000206000803373ffffffffffffffffffffffffffffffffffffffff1673ffffffffffffffffffffffffffffffffffffffff16815260200190815260200160002061246290949392919063ffffffff16565b8273ffffffffffffffffffffffffffffffffffffffff167f9b1bfa7fa9ee420a16e124f794c35ac9f90472acc99140eb2f6447c714cad8eb3384604051808373ffffffffffffffffffffffffffffffffffffffff1681526020018281526020019250505060405180910390a281905092915050565b6115e1868686868686600160008f73ffffffffffffffffffffffffffffffffffffffff1673ffffffffffffffffffffffffffffffffffffffff1681526020019081526020016000206127df909695949392919063ffffffff16565b50505050505050565b60008061164a858560046000878b60010160008c73ffffffffffffffffffffffffffffffffffffffff1673ffffffffffffffffffffffffffffffffffffffff16815260200190815260200160002061281e9095949392919063ffffffff16565b905060006116a1848860010160008973ffffffffffffffffffffffffffffffffffffffff1673ffffffffffffffffffffffffffffffffffffffff168152602001908152602001600020612c5190919063ffffffff16565b141561173a576116f08660010160008773ffffffffffffffffffffffffffffffffffffffff1673ffffffffffffffffffffffffffffffffffffffff168152602001908152602001600020612c6f565b6117398660000160008773ffffffffffffffffffffffffffffffffffffffff1673ffffffffffffffffffffffffffffffffffffffff168152602001908152602001600020612c6f565b5b80915050949350505050565b600061175183612cb6565b50509050806117c8576040517f08c379a000000000000000000000000000000000000000000000000000000000815260040180806020018281038252601a8152602001807f546865207265736572766520697320756e617661696c61626c6500000000000081525060200191505060405180910390fd5b8183600001600082825401925050819055508183600101600082825403925050819055506117f583612cfe565b505050565b60008061180684612cb6565b50915091508161187e576040517f08c379a000000000000000000000000000000000000000000000000000000000815260040180806020018281038252601a8152602001807f546865207265736572766520697320756e617661696c61626c6500000000000081525060200191505060405180910390fd5b806118d4576040517f08c379a000000000000000000000000000000000000000000000000000000000815260040180806020018281038252602a81526020018061336a602a913960400191505060405180910390fd5b8284600001600082825401925050819055506118ef84612cfe565b50505050565b600115156119428560000160008673ffffffffffffffffffffffffffffffffffffffff1673ffffffffffffffffffffffffffffffffffffffff168152602001908152602001600020612e36565b151514156119a1576119a06001848660000160008773ffffffffffffffffffffffffffffffffffffffff1673ffffffffffffffffffffffffffffffffffffffff168152602001908152602001600020612f029092919063ffffffff16565b5b6119fe838360016000858960000160008a73ffffffffffffffffffffffffffffffffffffffff1673ffffffffffffffffffffffffffffffffffffffff16815260200190815260200160002061281e9095949392919063ffffffff16565b5050505050565b60008060008084600401548560080154600a0a866004015487600501540281611a2a57fe5b0486600201548760080154600a0a886002015489600301540281611a4a57fe5b0488600201540193509350935093509193509193565b6000806000806000600280811115611a7457fe5b866002811115611a8057fe5b1415611ae857611ad9878a60010160008b73ffffffffffffffffffffffffffffffffffffffff1673ffffffffffffffffffffffffffffffffffffffff168152602001908152602001600020612f9e90919063ffffffff16565b94509450945094509450611b46565b611b3b878a60000160008b73ffffffffffffffffffffffffffffffffffffffff1673ffffffffffffffffffffffffffffffffffffffff168152602001908152602001600020612f9e90919063ffffffff16565b945094509450945094505b945094509450945094565b6000600280811115611b5f57fe5b836002811115611b6b57fe5b1415611bcb57611bc4828660010160008773ffffffffffffffffffffffffffffffffffffffff1673ffffffffffffffffffffffffffffffffffffffff168152602001908152602001600020612c5190919063ffffffff16565b9050611c49565b60016002811115611bd857fe5b836002811115611be457fe5b1415611c4457611c3d828660000160008773ffffffffffffffffffffffffffffffffffffffff1673ffffffffffffffffffffffffffffffffffffffff168152602001908152602001600020612c5190919063ffffffff16565b9050611c49565b600090505b949350505050565b6000600280811115611c5f57fe5b826002811115611c6b57fe5b1415611cc157611cba8460010160008573ffffffffffffffffffffffffffffffffffffffff1673ffffffffffffffffffffffffffffffffffffffff168152602001908152602001600020613005565b9050611d35565b60016002811115611cce57fe5b826002811115611cda57fe5b1415611d3057611d298460000160008573ffffffffffffffffffffffffffffffffffffffff1673ffffffffffffffffffffffffffffffffffffffff168152602001908152602001600020613005565b9050611d35565b600090505b9392505050565b600080611d4884612cb6565b925050915081611dc0576040517f08c379a000000000000000000000000000000000000000000000000000000000815260040180806020018281038252601a8152602001807f546865207265736572766520697320756e617661696c61626c6500000000000081525060200191505060405180910390fd5b80611e16576040517f08c379a000000000000000000000000000000000000000000000000000000000815260040180806020018281038252602a81526020018061325b602a913960400191505060405180910390fd5b82846000015411611e72576040517f08c379a00000000000000000000000000000000000000000000000000000000081526004018080602001828103825260268152602001806132f76026913960400191505060405180910390fd5b828460000160008282540392505081905550828460010160008282540192505081905550611e9f84612cfe565b50505050565b611eee8560010160008673ffffffffffffffffffffffffffffffffffffffff1673ffffffffffffffffffffffffffffffffffffffff168152602001908152602001600020612e36565b15611f4a57611f496002858760010160008873ffffffffffffffffffffffffffffffffffffffff1673ffffffffffffffffffffffffffffffffffffffff168152602001908152602001600020612f029092919063ffffffff16565b5b611fa68484600385858a60010160008b73ffffffffffffffffffffffffffffffffffffffff1673ffffffffffffffffffffffffffffffffffffffff16815260200190815260200160002061281e9095949392919063ffffffff16565b505050505050565b6000806000806000611fbf86611a05565b93509350935093506000611fd7898987878787613013565b9050600280811115611fe557fe5b896002811115611ff157fe5b141561204f5761204e8882898e60010160008f73ffffffffffffffffffffffffffffffffffffffff1673ffffffffffffffffffffffffffffffffffffffff168152602001908152602001600020613093909392919063ffffffff16565b5b6120a68882898e60000160008f73ffffffffffffffffffffffffffffffffffffffff1673ffffffffffffffffffffffffffffffffffffffff168152602001908152602001600020613093909392919063ffffffff16565b809550505050505095945050505050565b6121668461210e848860010160008973ffffffffffffffffffffffffffffffffffffffff1673ffffffffffffffffffffffffffffffffffffffff168152602001908152602001600020612c5190919063ffffffff16565b60056000868a60010160008b73ffffffffffffffffffffffffffffffffffffffff1673ffffffffffffffffffffffffffffffffffffffff16815260200190815260200160002061281e9095949392919063ffffffff16565b50612216836121be838860000160008873ffffffffffffffffffffffffffffffffffffffff1673ffffffffffffffffffffffffffffffffffffffff168152602001908152602001600020612c5190919063ffffffff16565b60056000858a60000160008a73ffffffffffffffffffffffffffffffffffffffff1673ffffffffffffffffffffffffffffffffffffffff16815260200190815260200160002061281e9095949392919063ffffffff16565b505050505050565b828460090160006101000a81548160ff021916908315150217905550818460090160016101000a81548160ff021916908315150217905550808460090160026101000a81548160ff02191690831515021790555050505050565b600061228383612cb6565b50509050806122fa576040517f08c379a000000000000000000000000000000000000000000000000000000000815260040180806020018281038252601a8152602001807f546865207265736572766520697320756e617661696c61626c6500000000000081525060200191505060405180910390fd5b8183600001541015612357576040517f08c379a000000000000000000000000000000000000000000000000000000000815260040180806020018281038252602781526020018061331d6027913960400191505060405180910390fd5b81836000016000828254039250508190555061237283612cfe565b505050565b60006001600281111561238657fe5b82600281111561239257fe5b14156123e8576123e18460010160008573ffffffffffffffffffffffffffffffffffffffff1673ffffffffffffffffffffffffffffffffffffffff1681526020019081526020016000206130da565b905061245b565b6002808111156123f457fe5b82600281111561240057fe5b14156124565761244f8460000160008573ffffffffffffffffffffffffffffffffffffffff1673ffffffffffffffffffffffffffffffffffffffff1681526020019081526020016000206130da565b905061245b565b600090505b9392505050565b600015156124af8660000160008773ffffffffffffffffffffffffffffffffffffffff1673ffffffffffffffffffffffffffffffffffffffff168152602001908152602001600020612e36565b151514612507576040517f08c379a00000000000000000000000000000000000000000000000000000000081526004018080602001828103825260268152602001806133446026913960400191505060405180910390fd5b60006125528660000160008773ffffffffffffffffffffffffffffffffffffffff1673ffffffffffffffffffffffffffffffffffffffff1681526020019081526020016000206130da565b9050600073ffffffffffffffffffffffffffffffffffffffff168173ffffffffffffffffffffffffffffffffffffffff1614612779576001600381111561259557fe5b73__Liquidations__________________________63817a262383612603868b60010160008873ffffffffffffffffffffffffffffffffffffffff1673ffffffffffffffffffffffffffffffffffffffff168152602001908152602001600020612c5190919063ffffffff16565b8961264d8c60000160008d73ffffffffffffffffffffffffffffffffffffffff1673ffffffffffffffffffffffffffffffffffffffff168152602001908152602001600020613005565b60008060006040518863ffffffff1660e01b8152600401808873ffffffffffffffffffffffffffffffffffffffff1681526020018781526020018673ffffffffffffffffffffffffffffffffffffffff16815260200185815260200184815260200183815260200182815260200197505050505050505060206040518083038186803b1580156126dc57600080fd5b505af41580156126f0573d6000803e3d6000fd5b505050506040513d602081101561270657600080fd5b8101908080519060200190929190505050600381111561272257fe5b14612778576040517f08c379a00000000000000000000000000000000000000000000000000000000081526004018080602001828103825260358152602001806132856035913960400191505060405180910390fd5b5b6127d6858560026000878b60000160008c73ffffffffffffffffffffffffffffffffffffffff1673ffffffffffffffffffffffffffffffffffffffff16815260200190815260200160002061281e9095949392919063ffffffff16565b50505050505050565b85876000018190555084876003018190555083876005018190555082876006018190555081876007018190555080876008018190555050505050505050565b600080600090506002600b81111561283257fe5b85600b81111561283e57fe5b14156128c45761284e8884612c51565b8611156128c3576040517f08c379a000000000000000000000000000000000000000000000000000000000815260040180806020018281038252601f8152602001807f43616e27742077697468647261772064756520746f206c6f7720746f74616c0081525060200191505060405180910390fd5b5b6128ce8884613108565b6001600b8111156128db57fe5b85600b8111156128e757fe5b141561290457858860000160008282540192505081905550612c3a565b6003600b81111561291157fe5b85600b81111561291d57fe5b1415612a7e57600073ffffffffffffffffffffffffffffffffffffffff168860060160009054906101000a900473ffffffffffffffffffffffffffffffffffffffff1673ffffffffffffffffffffffffffffffffffffffff1614612a24578373ffffffffffffffffffffffffffffffffffffffff168860060160009054906101000a900473ffffffffffffffffffffffffffffffffffffffff1673ffffffffffffffffffffffffffffffffffffffff1614612a23576040517f08c379a000000000000000000000000000000000000000000000000000000000815260040180806020018281038252603d8152602001806132ba603d913960400191505060405180910390fd5b5b838860060160006101000a81548173ffffffffffffffffffffffffffffffffffffffff021916908373ffffffffffffffffffffffffffffffffffffffff160217905550858860000160008282540192505081905550612c39565b6002600b811115612a8b57fe5b85600b811115612a9757fe5b1415612b005785886003015410612abf57858860030160008282540392505081905550612afb565b8760030154860395506000886003018190555087600001548611612ae35785612ae9565b87600001545b88600001600082825403925050819055505b612c38565b6004600b811115612b0d57fe5b85600b811115612b1957fe5b1415612b9b5785886003015410612b4157858860030160008282540392505081905550612b96565b8760030154860395506000886003018190555087600001548610612b69578760000154612b6b565b855b905087600001548611612b7e5785612b84565b87600001545b88600001600082825403925050819055505b612c37565b6005600b811115612ba857fe5b85600b811115612bb457fe5b1415612bc857612bc388613127565b612c36565b6040517f08c379a000000000000000000000000000000000000000000000000000000000815260040180806020018281038252601d8152602001807f496e76616c6964207472616e73616374696f6e20706172616d6574657200000081525060200191505060405180910390fd5b5b5b5b5b612c4388613147565b809150509695505050505050565b6000612c5d8383613153565b612c6684613005565b01905092915050565b60008160060160006101000a81548173ffffffffffffffffffffffffffffffffffffffff021916908373ffffffffffffffffffffffffffffffffffffffff16021790555050565b60008060008360090160029054906101000a900460ff168460090160009054906101000a900460ff168560090160019054906101000a900460ff169250925092509193909250565b60008160010154826000015401905060008260010154905060008360080154600a0a905080820291506000838381612d3257fe5b0490506000620249f090506000620249f0905060028302925083830192508381029050828181612d5e57fe5b04905080820391508387600701548503830281612d7757fe5b04876004018190555084876007015485018388020281612d9357fe5b0487600201819055507fd6da21d945587ec96c7c673155b0494e87497896addb18dbac0378baab74f7cc87600401548860080154600a0a89600401548a600501540281612ddc57fe5b0489600201548a60080154600a0a8b600201548c600301540281612dfc57fe5b048b60020154016040518085815260200184815260200183815260200182815260200194505050505060405180910390a150505050505050565b6000806002811115612e4457fe5b612e4d8361316d565b6002811115612e5857fe5b14158015612e8e575060006002811115612e6e57fe5b8260010160019054906101000a900460ff166002811115612e8b57fe5b14155b8015612eea5750600073ffffffffffffffffffffffffffffffffffffffff168260060160009054906101000a900473ffffffffffffffffffffffffffffffffffffffff1673ffffffffffffffffffffffffffffffffffffffff16145b15612ef85760009050612efd565b600190505b919050565b818360010160016101000a81548160ff02191690836002811115612f2257fe5b0217905550808360050160006101000a81548173ffffffffffffffffffffffffffffffffffffffff021916908373ffffffffffffffffffffffffffffffffffffffff16021790555060028360010160006101000a81548160ff02191690836002811115612f8b57fe5b0217905550612f9983613147565b505050565b60008060008060008660000154612fb58888613153565b8860010160009054906101000a900460ff1689600401548a60060160009054906101000a900473ffffffffffffffffffffffffffffffffffffffff16945094509450945094509295509295909350565b600081600001549050919050565b600060028081111561302157fe5b87600281111561302d57fe5b1415613060576001600281111561304057fe5b86600281111561304c57fe5b146130575782613059565b815b9050613089565b6001600281111561306d57fe5b86600281111561307957fe5b146130845784613086565b835b90505b9695505050505050565b61309d8482613108565b828460010160006101000a81548160ff021916908360028111156130bd57fe5b02179055508184600401819055506130d484613147565b50505050565b60008160060160009054906101000a900473ffffffffffffffffffffffffffffffffffffffff169050919050565b6131128282613188565b82600301600082825401925050819055505050565b61313081612c6f565b600081600301819055506000816000018190555050565b42816002018190555050565b600061315f8383613188565b836003015401905092915050565b60008160010160009054906101000a900460ff169050919050565b6000806131948461323e565b420390506000620f4240905080820291506301e1338082816131b257fe5b0491506000806131c186611a05565b5050509050600160028111156131d357fe5b6131dc8861316d565b60028111156131e757fe5b14156131ff5786600401548760000154029150613209565b8087600001540291505b6132128661324c565b600a0a828161321d57fe5b049150838202915082828161322e57fe5b0491508194505050505092915050565b600081600201549050919050565b60008160080154905091905056fe54686520626f72726f7720666f722074686973207265736572766520697320756e617661696c61626c65556e61626c6520746f20776974686472617720746f6f20746f206869676820626f72726f772f636f6c6c61746572616c207269736b596f752063616e20636f6c6c61746572697a6520796f757220626f72726f77206f6e6c792077697468207468652073616d6520636f6c6c61746572616c5265736572766520646f65736e2774206861766520656e6f75676820636f6c6c61746572616c546865207265736572766520646f65736e2774206861766520656e6f7567682062616c616e63654669727374207472616e73616374696f6e2063616e6e6f74206265207769746864726177616c546865206465706f73697420746f2074686973207265736572766520697320756e617661696c61626c65a26469706673582212200c5e7316fb6457a906f383f2a057a205614a925f050d6aa4196c8abad25a670e64736f6c63430007060033",
  "immutableReferences": {},
  "source": "// SPDX-License-Identifier: 0BSD\n\npragma solidity ^0.7.5;\n\nimport {DataTypes, Liquidations, Interests} from '../libraries/Utils.sol';\nimport {ILendingPool} from '../interfaces/ILendingPool.sol';\nimport {Reserve} from '../libraries/Reserve.sol';\nimport {UserConfiguration} from '../libraries/UserConfiguration.sol';\nimport {Balance} from '../libraries/Balance.sol';\n\n/**\n* @author Rastislav Budinsky\n* @notice Implementing the ILendingPool interface for the lending pool protocol.\n*   The protocol holds information about every user and hold all supported assets\n*   the status of deposited balance, interest on this balance as well as the total borrow\n*   and the interest accumulated on this borrow.\n*/\ncontract LendingPool is ILendingPool {\n\n    using UserConfiguration for UserConfiguration.UserConfig;\n    using Reserve for Reserve.ReserveData;\n\n    // balances and borrows of users\n    mapping(address => UserConfiguration.UserConfig) internal users;\n\n    // balance of each token at disposal to protocol\n    mapping(address => Reserve.ReserveData) public reserves;\n\n    function deposit(\n        address asset,\n        uint amount\n    ) external override {\n        // approve\n        require(amount > 0, \"Invalid amount to be deposited\");\n\n        reserves[asset].depositToReserve(amount);\n        users[msg.sender].addDeposit(asset, amount, reserves[asset]);\n\n        emit Deposit(asset, msg.sender, amount);\n\n        // execute transfer\n    }\n\n    function withdraw(\n        address asset,\n        uint amount\n    ) external override returns(uint) {\n\n        require(amount > 0, \"Invalid amount to be withdrawn\");\n\n        // check, if reserve allows the withdrawal, otherwise revert\n        reserves[asset].withdrawFromReserve(amount);\n\n        // check, if the user can withdraw, meaning he can has balance and doesnt collaterizes loan, otherwise revert\n        users[msg.sender].addWithdraw(asset, amount, reserves[asset], reserves[users[msg.sender].getCollateral(asset, DataTypes.BalanceType.DEFAULT)]);\n\n        emit Withdraw(asset, msg.sender, amount);\n\n        // execute transfer\n        return amount;      \n    }\n\n    function borrow(\n        address collateral,\n        address asset,\n        uint amount,\n        DataTypes.InterestMode interestMode\n    ) external override returns(bool) {\n        // approve\n\n        require(amount > 0, \"Invalid amount to borrow\");\n\n        // check, if the user has enough collateral to borrow the wanted amount\n        if (Liquidations.checkLiquidated(\n                asset,\n                users[msg.sender].getTotal(asset, DataTypes.BalanceType.LENDING, reserves[asset]) + amount,\n                collateral,\n                users[msg.sender].getBalance(collateral, DataTypes.BalanceType.DEFAULT),\n                0,\n                0,\n                0) != DataTypes.LiquidationType.BORROWABLE)\n            return false;\n        \n        // revert-needing actions\n\n        // check, if reserve allows the borrow\n        reserves[asset].borrowFromReserve(amount);\n\n        // check, if the user is allowed to take on borrow with his collateral, meaning the previous collateral is either the same or address(0)\n        users[msg.sender].addBorrow(asset, amount, collateral, reserves[asset]);\n\n        // change the interest mode of the borrow\n        uint interestRate = users[msg.sender].changeInterestMode(asset, DataTypes.BalanceType.LENDING, interestMode, reserves[asset]);\n\n        emit Borrow(collateral, asset, msg.sender, amount, interestMode, interestRate);\n\n        return true;\n    }\n\n    // repaying the interest doesn't count towards repaying reserve debt\n    function repay(\n        address collateral,\n        address asset,\n        uint amount\n    ) external override returns(uint) {\n\n        // approve\n\n        require(amount > 0, \"Invalid amount to repay\");\n\n        // get actual repaid amount without interest\n        uint returnValue = users[msg.sender].addRepay(asset, amount, reserves[asset]);\n\n        // update reserves with the actual amount repaid\n        reserves[asset].repayToReserve(returnValue);\n\n        emit Repay(collateral, asset, msg.sender, amount);\n        \n        return returnValue;\n    }\n\n    function liquidationCall(\n        address collateral,\n        address asset,\n        address user\n    ) external override {\n        users[user].addLiquidation(asset, collateral, reserves[asset], reserves[collateral]);\n    }\n\n\n    // part to be changed hopefully\n\n    function InitializeReserve(\n        address token,\n        uint total,\n        uint fixedBorrowInterest,\n        uint fixedDepositInterest,\n        uint depositBorrowRate,\n        uint healthRate,\n        uint decimals\n    ) public {\n        reserves[token].initializeReserve(\n        total,\n        fixedBorrowInterest,\n        fixedDepositInterest,\n        depositBorrowRate,\n        healthRate,\n        decimals\n        );\n    }\n\n    function InitializeAvailability(\n        address token,\n        bool isDeposit,\n        bool isBorrow,\n        bool isAvailable\n    ) public {\n        reserves[token].initializeAvailability(\n            isDeposit,\n            isBorrow,\n            isAvailable\n        );\n    }\n\n    function getUserBalance(address user, address token) external view returns(uint, uint, DataTypes.InterestMode, uint, address)\n    {\n        return users[user].getInfo(token, reserves[token], DataTypes.BalanceType.DEFAULT);\n    }\n\n    function getUserBorrow(address user, address token) external view returns(uint, uint, DataTypes.InterestMode, uint, address)\n    {\n        return users[user].getInfo(token, reserves[token], DataTypes.BalanceType.LENDING);\n    }\n\n    function getReserveBalance(address token) external view returns(uint, uint)\n    {\n        return (reserves[token].total, reserves[token].borrow);\n    }\n\n    function getReserveInterests(address token) external view returns(uint, uint, uint, uint)\n    {\n        return reserves[token].getInterests();\n    }\n}",
  "sourcePath": "/home/huginn/Desktop/Projects/FIT-prestiz/Token/contracts/protocolContracts/LendingPool.sol",
  "compiler": {
    "name": "solc",
    "version": "0.7.6+commit.7338295f.Emscripten.clang"
  },
  "schemaVersion": "3.4.1",
  "updatedAt": "2021-08-09T12:42:30.936Z",
  "devdoc": {
    "author": "Rastislav Budinsky",
    "kind": "dev",
    "methods": {
      "borrow(address,address,uint256,uint8)": {
        "details": "The user can is allowed to borrow the asset",
        "params": {
          "amount": "The amount user wants to borrow",
          "asset": "The address of the second asset to identify the pool pair",
          "collateral": "The address of underlying asset",
          "interestMode": "The mode of interest"
        },
        "returns": {
          "_0": "true on success"
        }
      },
      "deposit(address,uint256)": {
        "details": "Deposits the amount of underlying asset",
        "params": {
          "amount": "The amount to be deposited",
          "asset": "The address of the deposited asset"
        }
      },
      "liquidationCall(address,address,address)": {
        "details": "Liquidating non-collateralized borrow if the borrowed amount + interest is over the treshold   which should cover the market risk as well",
        "params": {
          "asset": "The address of the second asset to identify the pool pair",
          "collateral": "The address of the underlying asset",
          "user": "The address getting liquidated"
        }
      },
      "repay(address,address,uint256)": {
        "details": "The user repays his debt",
        "params": {
          "amount": "The amount user wants to repay",
          "asset": "The address of the second asset to identify the pool pair",
          "collateral": "The address of the underlying asset"
        },
        "returns": {
          "_0": "The final amount repaid"
        }
      },
      "withdraw(address,uint256)": {
        "details": "Withdraws the amount of underlying asset",
        "params": {
          "amount": "The amount to be withdrawn",
          "asset": "The address of the deposited asset"
        },
        "returns": {
          "_0": "The final amount to be withdrawn"
        }
      }
    },
    "version": 1
  },
  "userdoc": {
    "kind": "user",
    "methods": {},
    "notice": "Implementing the ILendingPool interface for the lending pool protocol.   The protocol holds information about every user and hold all supported assets   the status of deposited balance, interest on this balance as well as the total borrow   and the interest accumulated on this borrow.",
    "version": 1
  }
}