{
  "contractName": "PriceAggregator",
  "abi": [
    {
      "inputs": [],
      "stateMutability": "nonpayable",
      "type": "constructor"
    },
    {
      "inputs": [
        {
          "internalType": "address",
          "name": "_asset",
          "type": "address"
        }
      ],
      "name": "getAssetPrice",
      "outputs": [
        {
          "internalType": "uint256",
          "name": "",
          "type": "uint256"
        }
      ],
      "stateMutability": "view",
      "type": "function"
    }
  ],
  "bytecode": "0x608060405234801561001057600080fd5b5060bf8061001f6000396000f3fe6080604052348015600f57600080fd5b506004361060285760003560e01c8063b3596f0714602d575b600080fd5b606c60048036036020811015604157600080fd5b81019080803573ffffffffffffffffffffffffffffffffffffffff1690602001909291905050506082565b6040518082815260200191505060405180910390f35b600091905056fea264697066735822122083500a491cf208741e0bb6832638766cd69331cc110ee9c2f0017a69414b1e1664736f6c63430007060033",
  "immutableReferences": {},
  "source": "// SPDX-License-Identifier: 0BSD\n\npragma solidity ^0.7.5;\n\nimport '../interfaces/IPriceAggregator.sol';\n// import '@chainlink/contracts/src/v0.6/interfaces/AggregatorV3Interface.sol';\n\ncontract PriceAggregator is IPriceAggregator {\n    \n    // AggregatorV3Interface internal priceFeed;\n\n    constructor() public {\n        // priceFeed = AggregatorV3Interface(0xd04647B7CB523bb9f26730E9B6dE1174db7591Ad);\n    }\n\n    function getAssetPrice(address _asset) public override view returns(uint) {\n        // (\n        //     ,\n        //     int price,\n        //     ,\n        //     ,\n\n        // ) = priceFeed.latestRoundData();\n        // return uint(price);\n        return 0;\n    }\n}",
  "sourcePath": "/home/huginn/Desktop/Projects/FIT-prestiz/Token/contracts/protocolContracts/PriceAggregator.sol",
  "compiler": {
    "name": "solc",
    "version": "0.7.6+commit.7338295f.Emscripten.clang"
  },
  "schemaVersion": "3.4.1",
  "updatedAt": "2021-08-09T12:42:30.943Z",
  "devdoc": {
    "kind": "dev",
    "methods": {
      "getAssetPrice(address)": {
        "details": "returns price in ETH"
      }
    },
    "version": 1
  },
  "userdoc": {
    "kind": "user",
    "methods": {},
    "version": 1
  }
}