{
  "contractName": "StakingPool",
  "abi": [
    {
      "inputs": [],
      "stateMutability": "nonpayable",
      "type": "constructor"
    },
    {
      "anonymous": false,
      "inputs": [
        {
          "indexed": false,
          "internalType": "address",
          "name": "user",
          "type": "address"
        },
        {
          "indexed": false,
          "internalType": "uint256",
          "name": "amount",
          "type": "uint256"
        }
      ],
      "name": "Redeem",
      "type": "event"
    },
    {
      "anonymous": false,
      "inputs": [
        {
          "indexed": false,
          "internalType": "address",
          "name": "user",
          "type": "address"
        },
        {
          "indexed": false,
          "internalType": "uint256",
          "name": "amount",
          "type": "uint256"
        },
        {
          "indexed": true,
          "internalType": "uint256",
          "name": "epoch",
          "type": "uint256"
        }
      ],
      "name": "Stake",
      "type": "event"
    },
    {
      "anonymous": false,
      "inputs": [
        {
          "indexed": false,
          "internalType": "address",
          "name": "user",
          "type": "address"
        },
        {
          "indexed": false,
          "internalType": "uint256",
          "name": "amount",
          "type": "uint256"
        },
        {
          "indexed": true,
          "internalType": "uint256",
          "name": "epoch",
          "type": "uint256"
        }
      ],
      "name": "Unstake",
      "type": "event"
    },
    {
      "inputs": [],
      "name": "fitcoin",
      "outputs": [
        {
          "internalType": "contract ERC20",
          "name": "",
          "type": "address"
        }
      ],
      "stateMutability": "view",
      "type": "function"
    },
    {
      "inputs": [],
      "name": "fitcoin_address",
      "outputs": [
        {
          "internalType": "address",
          "name": "",
          "type": "address"
        }
      ],
      "stateMutability": "view",
      "type": "function"
    },
    {
      "inputs": [],
      "name": "lendingPoolAddress",
      "outputs": [
        {
          "internalType": "address",
          "name": "",
          "type": "address"
        }
      ],
      "stateMutability": "view",
      "type": "function"
    },
    {
      "inputs": [],
      "name": "stakingReserve",
      "outputs": [
        {
          "internalType": "uint256",
          "name": "total",
          "type": "uint256"
        },
        {
          "internalType": "uint256",
          "name": "payoutNumber",
          "type": "uint256"
        },
        {
          "internalType": "uint256",
          "name": "decimals",
          "type": "uint256"
        }
      ],
      "stateMutability": "view",
      "type": "function"
    },
    {
      "inputs": [
        {
          "internalType": "address",
          "name": "",
          "type": "address"
        }
      ],
      "name": "users",
      "outputs": [
        {
          "internalType": "uint256",
          "name": "total",
          "type": "uint256"
        },
        {
          "internalType": "uint256",
          "name": "interest",
          "type": "uint256"
        },
        {
          "internalType": "uint256",
          "name": "lastEpoch",
          "type": "uint256"
        }
      ],
      "stateMutability": "view",
      "type": "function"
    },
    {
      "inputs": [
        {
          "internalType": "contract ERC20",
          "name": "_token",
          "type": "address"
        },
        {
          "internalType": "address",
          "name": "_lendingPoolAddress",
          "type": "address"
        }
      ],
      "name": "initialize",
      "outputs": [],
      "stateMutability": "nonpayable",
      "type": "function"
    },
    {
      "inputs": [
        {
          "internalType": "uint256",
          "name": "amount",
          "type": "uint256"
        }
      ],
      "name": "stake",
      "outputs": [],
      "stateMutability": "nonpayable",
      "type": "function"
    },
    {
      "inputs": [
        {
          "internalType": "uint256",
          "name": "amount",
          "type": "uint256"
        }
      ],
      "name": "unstake",
      "outputs": [],
      "stateMutability": "nonpayable",
      "type": "function"
    },
    {
      "inputs": [],
      "name": "redeem",
      "outputs": [],
      "stateMutability": "nonpayable",
      "type": "function"
    },
    {
      "inputs": [],
      "name": "payInterest",
      "outputs": [],
      "stateMutability": "nonpayable",
      "type": "function"
    },
    {
      "inputs": [
        {
          "internalType": "uint256",
          "name": "balanceNeeded",
          "type": "uint256"
        }
      ],
      "name": "slash",
      "outputs": [
        {
          "internalType": "bool",
          "name": "",
          "type": "bool"
        }
      ],
      "stateMutability": "nonpayable",
      "type": "function"
    }
  ],
  "bytecode": "0x60806040526000600a60146101000a81548160ff02191690831515021790555034801561002b57600080fd5b506301e1338060080242016000819055506115f68061004b6000396000f3fe608060405234801561001057600080fd5b50600436106100a95760003560e01c8063a15a211c11610071578063a15a211c146101ec578063a694fc3a146101f6578063a87430ba14610224578063b61d43b11461028a578063be040fb0146102b6578063d3ae26b3146102c0576100a9565b80630f17a9fe146100ae5780632e17de78146100e257806345bc4d1014610110578063485cc955146101545780634ff09eca146101b8575b600080fd5b6100b66102f4565b604051808273ffffffffffffffffffffffffffffffffffffffff16815260200191505060405180910390f35b61010e600480360360208110156100f857600080fd5b810190808035906020019092919050505061031a565b005b61013c6004803603602081101561012657600080fd5b810190808035906020019092919050505061059a565b60405180821515815260200191505060405180910390f35b6101b66004803603604081101561016a57600080fd5b81019080803573ffffffffffffffffffffffffffffffffffffffff169060200190929190803573ffffffffffffffffffffffffffffffffffffffff16906020019092919050505061067f565b005b6101c061097d565b604051808273ffffffffffffffffffffffffffffffffffffffff16815260200191505060405180910390f35b6101f46109a3565b005b6102226004803603602081101561020c57600080fd5b81019080803590602001909291905050506109f5565b005b6102666004803603602081101561023a57600080fd5b81019080803573ffffffffffffffffffffffffffffffffffffffff169060200190929190505050610c75565b60405180848152602001838152602001828152602001935050505060405180910390f35b610292610c9f565b60405180848152602001838152602001828152602001935050505060405180910390f35b6102be610cb7565b005b6102c8610f7a565b604051808273ffffffffffffffffffffffffffffffffffffffff16815260200191505060405180910390f35b600860009054906101000a900473ffffffffffffffffffffffffffffffffffffffff1681565b600080610444600360003373ffffffffffffffffffffffffffffffffffffffff1673ffffffffffffffffffffffffffffffffffffffff16815260200190815260200160002073__Staking_______________________________63a854b9a590916040518263ffffffff1660e01b81526004018082815260200191505060206040518083038186803b1580156103af57600080fd5b505af41580156103c3573d6000803e3d6000fd5b505050506040513d60208110156103d957600080fd5b810190808051906020019092919050505084610432600360003373ffffffffffffffffffffffffffffffffffffffff1673ffffffffffffffffffffffffffffffffffffffff168152602001908152602001600020610fa0565b6004610fae909392919063ffffffff16565b915091506104c0600860009054906101000a900473ffffffffffffffffffffffffffffffffffffffff16836001600360003373ffffffffffffffffffffffffffffffffffffffff1673ffffffffffffffffffffffffffffffffffffffff168152602001908152602001600020610fdb909392919063ffffffff16565b6105378382600860009054906101000a900473ffffffffffffffffffffffffffffffffffffffff16600360003373ffffffffffffffffffffffffffffffffffffffff1673ffffffffffffffffffffffffffffffffffffffff168152602001908152602001600020610ffb909392919063ffffffff16565b61053f6109a3565b807ff960dbf9e5d0682f7a298ed974e33a28b4464914b7a2bfac12ae419a9afeb2803385604051808373ffffffffffffffffffffffffffffffffffffffff1681526020018281526020019250505060405180910390a2505050565b6000600a60009054906101000a900473ffffffffffffffffffffffffffffffffffffffff1673ffffffffffffffffffffffffffffffffffffffff163373ffffffffffffffffffffffffffffffffffffffff1614610642576040517f08c379a000000000000000000000000000000000000000000000000000000000815260040180806020018281038252603481526020018061152f6034913960400191505060405180910390fd5b60008060646106516004611079565b601e028161065b57fe5b0490508381830211156106735760009250505061067a565b6001925050505b919050565b60001515600a60149054906101000a900460ff16151514610708576040517f08c379a000000000000000000000000000000000000000000000000000000000815260040180806020018281038252601f8152602001807f666974636f696e206164647265737320616c7265616479206368616e6765640081525060200191505060405180910390fd5b80600a60006101000a81548173ffffffffffffffffffffffffffffffffffffffff021916908373ffffffffffffffffffffffffffffffffffffffff16021790555081600860006101000a81548173ffffffffffffffffffffffffffffffffffffffff021916908373ffffffffffffffffffffffffffffffffffffffff16021790555081600960006101000a81548173ffffffffffffffffffffffffffffffffffffffff021916908373ffffffffffffffffffffffffffffffffffffffff160217905550610884600960009054906101000a900473ffffffffffffffffffffffffffffffffffffffff1673ffffffffffffffffffffffffffffffffffffffff1663313ce5676040518163ffffffff1660e01b815260040160206040518083038186803b15801561083657600080fd5b505afa15801561084a573d6000803e3d6000fd5b505050506040513d602081101561086057600080fd5b810190808051906020019092919050505060ff16600461108790919063ffffffff16565b6301e13380600802600960009054906101000a900473ffffffffffffffffffffffffffffffffffffffff1673ffffffffffffffffffffffffffffffffffffffff166370a08231306040518263ffffffff1660e01b8152600401808273ffffffffffffffffffffffffffffffffffffffff16815260200191505060206040518083038186803b15801561091557600080fd5b505afa158015610929573d6000803e3d6000fd5b505050506040513d602081101561093f57600080fd5b81019080805190602001909291905050508161095757fe5b046001819055506001600a60146101000a81548160ff0219169083151502179055505050565b600960009054906101000a900473ffffffffffffffffffffffffffffffffffffffff1681565b6000544211156109b2576109f3565b600080600254146109c75760025442036109ca565b60005b9050600060015482029050426002819055506109f08160046110c090919063ffffffff16565b50505b565b600080610b1f600360003373ffffffffffffffffffffffffffffffffffffffff1673ffffffffffffffffffffffffffffffffffffffff16815260200190815260200160002073__Staking_______________________________63a854b9a590916040518263ffffffff1660e01b81526004018082815260200191505060206040518083038186803b158015610a8a57600080fd5b505af4158015610a9e573d6000803e3d6000fd5b505050506040513d6020811015610ab457600080fd5b810190808051906020019092919050505084610b0d600360003373ffffffffffffffffffffffffffffffffffffffff1673ffffffffffffffffffffffffffffffffffffffff168152602001908152602001600020610fa0565b6004611191909392919063ffffffff16565b91509150610b9b600860009054906101000a900473ffffffffffffffffffffffffffffffffffffffff16836001600360003373ffffffffffffffffffffffffffffffffffffffff1673ffffffffffffffffffffffffffffffffffffffff168152602001908152602001600020610fdb909392919063ffffffff16565b610c128382600860009054906101000a900473ffffffffffffffffffffffffffffffffffffffff16600360003373ffffffffffffffffffffffffffffffffffffffff1673ffffffffffffffffffffffffffffffffffffffff1681526020019081526020016000206111be909392919063ffffffff16565b610c1a6109a3565b807f5af417134f72a9d41143ace85b0a26dce6f550f894f2cbc1eeee8810603d91b63385604051808373ffffffffffffffffffffffffffffffffffffffff1681526020018281526020019250505060405180910390a2505050565b60036020528060005260406000206000915090508060000154908060010154908060020154905083565b60048060000154908060010154908060030154905083565b6000610dde600360003373ffffffffffffffffffffffffffffffffffffffff1673ffffffffffffffffffffffffffffffffffffffff16815260200190815260200160002073__Staking_______________________________63a854b9a590916040518263ffffffff1660e01b81526004018082815260200191505060206040518083038186803b158015610d4b57600080fd5b505af4158015610d5f573d6000803e3d6000fd5b505050506040513d6020811015610d7557600080fd5b8101908080519060200190929190505050610dcd600360003373ffffffffffffffffffffffffffffffffffffffff1673ffffffffffffffffffffffffffffffffffffffff168152602001908152602001600020610fa0565b60046111db9092919063ffffffff16565b509050600360003373ffffffffffffffffffffffffffffffffffffffff1673ffffffffffffffffffffffffffffffffffffffff16815260200190815260200160002073__Staking_______________________________630736358b90916040518263ffffffff1660e01b81526004018082815260200191505060206040518083038186803b158015610e7057600080fd5b505af4158015610e84573d6000803e3d6000fd5b505050506040513d6020811015610e9a57600080fd5b810190808051906020019092919050505081019050610f22600860009054906101000a900473ffffffffffffffffffffffffffffffffffffffff16600360003373ffffffffffffffffffffffffffffffffffffffff1673ffffffffffffffffffffffffffffffffffffffff16815260200190815260200160002061126890919063ffffffff16565b7f222838db2794d11532d940e8dec38ae307ed0b63cd97c233322e221f998767a63382604051808373ffffffffffffffffffffffffffffffffffffffff1681526020018281526020019250505060405180910390a150565b600a60009054906101000a900473ffffffffffffffffffffffffffffffffffffffff1681565b600081600201549050919050565b600080838660000160008282540392505081905550610fce8686856111db565b9150915094509492505050565b610ff584848484610fed576009610ff0565b60085b611281565b50505050565b82611005856114e5565b101561105c576040517f08c379a00000000000000000000000000000000000000000000000000000000081526004018080602001828103825260228152602001806115636022913960400191505060405180910390fd5b6110698482856007611281565b61107384836114fd565b50505050565b600081600001549050919050565b80826003018190555081600201600090806001815401808255809150506001900390600052602060002001600090919091909150555050565b60008260030154600a0a8360000154816110d657fe5b04905060008114156110e757600190505b600080846002018054905014611120578360020160018560020180549050038154811061111057fe5b9060005260206000200154611123565b60005b90508360030154600a0a828560030154600a0a85028161113f57fe5b048161114757fe5b048101905083600201819080600181540180825580915050600190039060005260206000200160009091909190915055836001016000815480929190600101919050555050505050565b6000808386600001600082825401925050819055506111b18686856111db565b9150915094509492505050565b6111cb8482856006611281565b6111d584836114fd565b50505050565b600080846001015483106111f9576000856001015491509150611260565b600060028660030154600a0a0a86600201858154811061121557fe5b90600052602060002001548760020188600101548154811061123357fe5b9060005260206000200154038760030154600a0a8702028161125157fe5b04905080866001015492509250505b935093915050565b61127d828261127685611520565b600a611281565b5050565b6007600b81111561128e57fe5b81600b81111561129a57fe5b14806112bb5750600b808111156112ad57fe5b81600b8111156112b957fe5b145b1561132257816112ca856114e5565b1015611321576040517f08c379a000000000000000000000000000000000000000000000000000000000815260040180806020018281038252603c815260200180611585603c913960400191505060405180910390fd5b5b6009600b81111561132f57fe5b81600b81111561133b57fe5b1415611346576114df565b6006600b81111561135357fe5b81600b81111561135f57fe5b148061138157506007600b81111561137357fe5b81600b81111561137f57fe5b145b156113d4576006600b81111561139357fe5b81600b81111561139f57fe5b14156113bc578184600001600082825401925050819055506113cf565b8184600001600082825403925050819055505b6114de565b6008600b8111156113e157fe5b81600b8111156113ed57fe5b141561140a578184600101600082825401925050819055506114dd565b600b8081111561141657fe5b81600b81111561142257fe5b141561143f578184600001600082825403925050819055506114dc565b600a600b81111561144c57fe5b81600b81111561145857fe5b141561146d57600084600101819055506114db565b6040517f08c379a000000000000000000000000000000000000000000000000000000000815260040180806020018281038252601d8152602001807f496e76616c6964207472616e73616374696f6e20706172616d6574657200000081525060200191505060405180910390fd5b5b5b5b5b50505050565b60006114f082611520565b8260000154019050919050565b81600201548111611512578160020154611514565b805b82600201819055505050565b60008160010154905091905056fe4f6e6c79204c656e64696e6720706f6f6c20697320616c6c6f77656420746f2061636365737320746869732066756e6374696f6e547279696e6720746f20756e7374616b65206d6f7265207468616e20656e6f756768496e73756666696369656e7420616d6f756e74207374616b65642c20747279696e6720746f20756e7374616b652f736c61736820746f6f206d756368a2646970667358221220d6c9757149942bf8d2ede887e48b4254dca4322ca3df4892722a0c18443d637f64736f6c63430007060033",
  "immutableReferences": {},
  "source": "// SPDX-License-Identifier: 0BSD\n\npragma solidity ^0.7.5;\n\nimport {StakingReserveLib} from '../libraries/StakingReserveLib.sol';\nimport {IStakingPool} from '../interfaces/IStakingPool.sol';\nimport {Staking} from '../libraries/Staking.sol';\nimport {DataTypes} from '../libraries/Utils.sol';\nimport '../open-zeppelin/ERC20.sol';\n\ncontract StakingPool is IStakingPool {\n    \n    using Staking for Staking._stake;\n    using StakingReserveLib for StakingReserveLib.StakingReserve;\n\n    uint private endMinting;        // timestamp of expected 8 years minting\n    uint private rewardPerSecond;   // reward of fitcoin per second passed (distribution is linear)\n    uint private lastTimestamp;     // timestamp of the last stake/unstake from the protocol\n\n    // balances of users\n    mapping(address => Staking._stake) public users;\n\n    // balance of the staking pool\n    StakingReserveLib.StakingReserve public stakingReserve;\n\n    // address of fitcoin\n    address public fitcoin_address;\n    // interface of FITCOIN\n    ERC20 public fitcoin;\n    // address of lending pool for slashing\n    address public lendingPoolAddress;\n    // to prevent from being deployed multiple times\n    bool private deployed = false;\n\n\n\n    // end rewards after 8 years of \"minting\" new tokens\n    constructor () public {\n        endMinting = block.timestamp + 8 * DataTypes.secondsPerYear;\n    }\n\n    modifier onlyLendingPool ()\n    {\n        require(msg.sender == lendingPoolAddress, \"Only Lending pool is allowed to access this function\");\n        _;\n    }\n\n    // no need for onlyOwner as it should be changed right on deployement\n    function initialize(ERC20 _token, address _lendingPoolAddress) public\n    {\n        require(deployed == false, \"fitcoin address already changed\");\n        \n        lendingPoolAddress = _lendingPoolAddress;\n\n        fitcoin_address = address(_token);\n        fitcoin = _token;\n        stakingReserve.initializeStakingReserve(fitcoin.decimals());\n        // fitcoin_address = _fitcoin;\n\n        rewardPerSecond = fitcoin.balanceOf(address(this)) / (8 * DataTypes.secondsPerYear);\n\n\n        deployed = true;\n    }\n\n    function stake(\n        uint amount\n    ) external override {\n\n        (uint interest, uint epoch) = stakingReserve.stakeToReserve(users[msg.sender].getStakeTotal(), amount, users[msg.sender].getLastEpoch());\n\n        users[msg.sender].addStakeInterest(fitcoin_address, interest, true);\n\n        users[msg.sender].addStake(amount, epoch, fitcoin_address);\n\n        payInterest();\n\n        emit Stake(msg.sender, amount, epoch);\n    }\n\n    function unstake(\n        uint amount\n    ) external override {\n\n        (uint interest, uint epoch) = stakingReserve.unstakeFromReserve(users[msg.sender].getStakeTotal(), amount, users[msg.sender].getLastEpoch());\n\n        users[msg.sender].addStakeInterest(fitcoin_address, interest, true);\n\n        users[msg.sender].addUnstake(amount, epoch, fitcoin_address);\n\n        payInterest();\n        \n        emit Unstake(msg.sender, amount, epoch);\n    }\n\n    function redeem() external override \n    {\n        // redeeming shouldn't affect the epoch\n        (uint interest,) = stakingReserve.calculateInterest(users[msg.sender].getStakeTotal(), users[msg.sender].getLastEpoch());\n        \n        interest += users[msg.sender].getAccruedInterest();\n\n        users[msg.sender].addRedeem(fitcoin_address);\n        \n        // get the actual amount redeemed\n        emit Redeem(msg.sender, interest);\n    }\n\n    /**\n    * @dev function should be called after every change in stakingPool\n    *   regarding staking and unstaking to add rewards and calculate proper amounts\n    */\n    function payInterest() public\n    {\n        // no more minting rewards allowed after 8 years\n        if (block.timestamp > endMinting)\n            return;\n        \n        uint time = lastTimestamp == 0 ? 0 : block.timestamp - lastTimestamp;\n        uint reward = time * rewardPerSecond;\n\n        lastTimestamp = block.timestamp;\n        // pay users interest and move onto the next epoch\n        stakingReserve.rewardToReserve(reward);\n    }\n\n    /**\n    * @dev function accessible only by the lending pool in order to slash stakers and restore\n    * rewards at lending pool, expecting total balance needed in ETH\n    */\n    function slash(uint balanceNeeded) onlyLendingPool public returns(bool)\n    {\n        // time of 2 weeks\n        // if (lastSlash + 60*60*24*14 < block.timestamp)\n        //     return false;\n\n        // get price of FITCOIN in eth\n        uint pricePerFitcoin;\n        uint totalAvailable = (30 * stakingReserve.getTotal()) / 100;       // only 30% slashed max\n\n        if (pricePerFitcoin * totalAvailable > balanceNeeded)\n            return false;\n            \n        return true;\n    }\n}",
  "sourcePath": "/home/huginn/Desktop/Projects/FIT-prestiz/Token/contracts/protocolContracts/StakingPool.sol",
  "compiler": {
    "name": "solc",
    "version": "0.7.6+commit.7338295f.Emscripten.clang"
  },
  "schemaVersion": "3.4.1",
  "updatedAt": "2021-08-09T12:42:30.943Z",
  "devdoc": {
    "kind": "dev",
    "methods": {
      "payInterest()": {
        "details": "function should be called after every change in stakingPool   regarding staking and unstaking to add rewards and calculate proper amounts"
      },
      "redeem()": {
        "details": "Redeeming the staking interest"
      },
      "slash(uint256)": {
        "details": "function accessible only by the lending pool in order to slash stakers and restore rewards at lending pool, expecting total balance needed in ETH"
      },
      "stake(uint256)": {
        "details": "Adding FITCOIN to the staking pool",
        "params": {
          "amount": "the amount of FITCOIN begin added to the staking pool"
        }
      },
      "unstake(uint256)": {
        "details": "Removing FITCOIN from the staking pool",
        "params": {
          "amount": "the amount of FITCOIN being removed from the staking pool"
        }
      }
    },
    "version": 1
  },
  "userdoc": {
    "kind": "user",
    "methods": {},
    "version": 1
  }
}